:020000040800F2
:10000000380400204501000885030008E5030008C6
:10001000E9030008ED030008F103000800000000F8
:10002000000000000000000000000000F5030008D0
:10003000F703000800000000F9030008FB030008B4
:100040005F0100085F0100085F0100085F01000810
:100050005F0100085F0100085F010008FF0300085E
:1000600001040008030400085F0100085F010008A4
:100070005F0100085F0100085F0100085F010008E0
:100080005F0100085F0100085F0100085F010008D0
:100090005F0100085F0100085F010008FD03000820
:1000A0005F0100085F0100085F0100085F010008B0
:1000B0005F0100085F0100085F0100085F010008A0
:1000C0005F0100085F0100085F0100085F01000890
:1000D0005F010008870300085F0100085F01000856
:1000E0005F0100085F0100085F0100085F01000870
:1000F0005F0100085F0100085F0100085F01000860
:100100005F0100085F0100085F0100085F0100084F
:100110005F0100085F0100085F0100085F0100083F
:100120005F0100085F0100085F0100085F0100082F
:10013000DFF80CD001F048FC00480047BF0200087F
:10014000380400200648804706480047FEE7FEE7DF
:10015000FEE7FEE7FEE7FEE7FEE7FEE7FEE7FEE777
:10016000C71800083101000870B504460D46E1B219
:10017000734801F0EBF800BF8021714801F054F999
:100180000028F9D0204670BD08B54FF4C06000F0DB
:1001900033FF25208DF8000000208DF8010001209C
:1001A0008DF802008DF80300684600F02AFF08BDB4
:1001B0001FB54FF4165000900020ADF80400ADF8C4
:1001C0000600ADF80800ADF80C000C20ADF80A00F0
:1001D00069465B4800F0C1FF012240F225515848B2
:1001E00001F053F80121564801F043F840215448EA
:1001F00001F027F91FBD08B54FF40070ADF80000FD
:1002000003208DF8020018208DF8030069464D4840
:1002100000F0D2FB4FF48060ADF8000004208DF8B0
:1002200003006946474800F0C7FB1020ADF8000006
:1002300003208DF8020010208DF803006946414824
:1002400000F0BAFB1020ADF8000003208DF802008A
:1002500010208DF8030069463B4800F0ADFB2020DC
:10026000ADF8000048208DF8030003208DF802004F
:100270006946354800F0A0FB0C20ADF800001020C6
:100280008DF8030003208DF8020069462D4800F028
:1002900093FB0C212B4800F03CFC08BD10B501F08D
:1002A00012FB01211C2000F043FE01214FF4A0406D
:1002B00000F03EFE0121084600F03AFE10BD0EB5EA
:1002C000FFF7ECFFFFF797FFFFF772FFFFF75CFF09
:1002D00000F0A0F810211B4800F01DFC10211A4866
:1002E00000F017FC00F094F918B118A001F07EFBA3
:1002F00002E01BA001F07AFB00F037F900F018FAD9
:100300001CE02021104800F0EAFB50B9684600F0DC
:10031000E7F930B9684600F04BFA4FF4FA7000F094
:10032000CEFA1648007848B100F010FA144800F0F0
:10033000A6F900F0FDF9002010490870E1E700007F
:1003400000380140000801400010014063616E6008
:10035000742066696E642032346C303121000000F4
:1003600066696E642032346C303120737563636566
:10037000737366756C6C792100000000000000202A
:1003800001000020704710B540F225511D4801F0D2
:1003900061F808B300BF40F225511A4801F05AF83D
:1003A0000028F8D0174800F0D5FF1749174A1278EF
:1003B000885408460078302804D114480078401C3E
:1003C0001249087011480078042805D100200F490F
:1003D000087001200E49087040F22551094801F0CB
:1003E00063F810BD00BFFEE700BFFEE700BFFEE7F9
:1003F00000BFFEE77047704770477047704770470F
:1004000070477047003801400100002005000020BF
:100410000000002000B587B0A020ADF80400032044
:100420008DF8060018208DF8070001A9F44800F0A7
:10043000C3FA4020ADF8040048208DF807000320DF
:100440008DF8060001A9EE4800F0B6FA0020ADF8DC
:1004500008004FF48270ADF80A000020ADF80C00DF
:10046000ADF80E00ADF810004FF40070ADF81200BA
:100470001020ADF814000020ADF816000720ADF8EC
:10048000180002A9DF4801F04FF80121DD4801F012
:10049000F0F807B000BDDB4909884FF6C77211407C
:1004A000D84A1180114609880143118011460988F4
:1004B00041F040011180704770B50546002405E009
:1004C000601CC4B2C82C01DD002070BD0221CD48E3
:1004D00001F053F90028F3D02946CA4801F0FAF890
:1004E000002405E0601CC4B2C82C01DD0020ECE74C
:1004F0000121C44801F041F90028F3D0C14801F0BE
:10050000EBF8C0B2E1E770B505460C461021BE48D5
:1005100000F001FB2846FFF7CFFF06462046FFF715
:10052000CBFF1021B84800F0F4FA304670BD2DE939
:10053000F04107460C4615461021B34800F0EBFA8F
:100540003846FFF7B9FF8046002605E014F8010B96
:10055000FFF7B2FF701CC6B2AE42F7DB1021AA480B
:1005600000F0D7FA4046BDE8F08110B51021A4484C
:1005700000F0D1FA0522A5493020FFF7D8FF052267
:10058000A3492A20FFF7D3FF0522A2492B20FFF71A
:10059000CEFF3F212120FFF7B6FF3F212220FFF7AA
:1005A000B2FF28212520FFF7AEFF1A212420FFF7F4
:1005B000AAFF20213120FFF7A6FF20213220FFF7DC
:1005C000A2FF0F212620FFF79EFF10218C4800F08C
:1005D000A0FA10BD2DE9F04107460D461646102140
:1005E000894800F098FA3846FFF766FF80460024F5
:1005F00005E0FF20FFF760FF2855601CC4B2B4423D
:10060000F7DB1021804800F084FA4046BDE8F08115
:100610001CB581A103C9CDE900011020FFF73BFF04
:10062000052269463020FFF782FF05226946102027
:10063000FFF7D0FF002406E01DF80400A52800D035
:1006400003E0601CC4B2052CF6DB00BF052C01D012
:1006500001201CBD0020FCE770B5044610216A484B
:1006600000F059FA2046FFF727FFFF20FFF724FF8D
:1006700005461021644800F04CFA284670BD70B55C
:1006800005461020FFF707FF10215D4800F043FAF0
:1006900020222946A020FFF74AFF1021584800F0E9
:1006A00038FA00BF2021584800F019FA0028F9D183
:1006B0000720FFF7D1FF044621462720FFF723FF3D
:1006C00004F0100028B1FF21E120FFF71CFF1020EB
:1006D00070BD04F0200008B12020F9E7FF20F7E703
:1006E00070B504461020FFF7D6FE0720FFF7B4FFD1
:1006F000054629462720FFF706FF05F04000A8B170
:1007000010213F4800F007FA202221466120FFF720
:1007100061FFFF21E220FFF7F6FE1021384800F0CC
:10072000F8F9962000F0B0F8002070BD0120FCE739
:1007300010B51021324800F0EEF90F212020FFF70C
:10074000E2FE10212E4800F0E4F910BD10B5102192
:100750002B4800F0E0F90E212020FFF7D4FE1021F5
:10076000274800F0D6F90F2000F08EF810BD10B524
:1007700004461021224800F0CEF90E212020FFF778
:10078000C2FE10211E4800F0C4F90F2000F07CF8D2
:100790002046FFF774FF1021194800F0BCF90F2123
:1007A0002020FFF7B0FE1021154800F0B2F910BD6F
:1007B00070B5054600240CE0295D194800F0C6FD1F
:1007C00000BF8021164800F02FFE0028F9D0601CE1
:1007D000C4B20B2CF0DB70BD70B5054600240CE0F4
:1007E0000F4800F0B7FD285500BF20210C4800F04D
:1007F0001BFE0028F9D0601CC4B2062CF0DB70BDD3
:100800000008014000300140001001403C1A00087F
:10081000411A0008461A0008A5A5A5A5A5000000D4
:100820000038014010B500F015FA4FF4803000F0A8
:1008300031FA00F06EFA012820D1002000F0AFFA62
:10084000002000F0BEFA4FF4806000F0B1FA4FF4DF
:10085000E0114FF4803000F085FA012000F08EFAAC
:1008600000BF392000F039FA0028FAD0022000F049
:1008700088FA00BF00F08EFA0828FBD110BD00E016
:10088000401E0028FCD17047014601EBC1024FF029
:10089000E0235A6100229A6101221A6100BF4FF0E1
:1008A000E022106900F001021AB100F48032002A3F
:1008B000F5D000224FF0E0231A619A61704701469B
:1008C00042F228324A434FF0E0235A6100229A61F3
:1008D00001221A6100BF4FF0E022106900F001020E
:1008E0001AB100F48032002AF5D000224FF0E02344
:1008F0001A619A617047000010B50446CC488442E2
:1009000008D10121042000F02DFB0021042000F07B
:1009100029FB46E0C748844208D10121082000F0A5
:1009200021FB0021082000F01DFB3AE0C248844270
:1009300008D10121102000F015FB0021102000F04B
:1009400011FB2EE0BD48844208D10121202000F097
:1009500009FB0021202000F005FB22E0B84884427A
:1009600008D10121402000F0FDFA0021402000F0D4
:10097000F9FA16E0B348844208D10121802000F042
:10098000F1FA0021802000F0EDFA0AE0AE4884423E
:1009900007D10121801500F0E5FA0021A01500F033
:1009A000E1FA10BD10B50121084600F0DBFA002184
:1009B000012000F0D7FA10BD2DE9F04102460025D4
:1009C0000026002000230024002791F803C00CF02B
:1009D0000F0591F803C00CF0100CBCF1000F03D010
:1009E00091F802C04CEA050591F800C0BCF1000F77
:1009F00031D0146800202BE04FF0010C0CFA00F30A
:100A0000B1F800C00CEA03069E4220D183004FF0EB
:100A10000F0C0CFA03F7BC4305FA03FC4CEA040480
:100A200091F803C0BCF1280F06D14FF0010C0CFA6D
:100A300000FCC2F814C00AE091F803C0BCF1480FF2
:100A400005D14FF0010C0CFA00FCC2F810C0401C9C
:100A50000828D1D31460B1F800C0BCF1FF0F34DD19
:100A6000546800202EE000F1080C4FF0010808FA4D
:100A70000CF3B1F800C00CEA03069E4221D18300BA
:100A80004FF00F0C0CFA03F7BC4305FA03FC4CEAD9
:100A9000040491F803C0BCF1280F05D100F1080C43
:100AA00008FA0CF8C2F8148091F803C0BCF1480FA2
:100AB00007D100F1080C4FF0010808FA0CF8C2F851
:100AC0001080401C0828CED35460BDE8F0814FF65A
:100AD000FF710180022181700421C17070470246BC
:100AE000002093680B400BB1012000E0002070470C
:100AF0000146886880B2704702460020D3680B40E8
:100B00000BB1012000E0002070470146C86880B2A8
:100B1000704701617047416170470AB1016100E0AF
:100B200041617047C16070474FF480320A4382616F
:100B30008161826182698269704702460020434B6D
:100B400018684FF68073184040EA021008433F4B84
:100B5000186070473E49C8617047F0B50A460023E7
:100B600000240021002500F00046B6F1004F02D11C
:100B7000364EF16901E0354E7168C0F3034583B22A
:100B800000F44016B6F5401F08D121F070612F4ED9
:100B9000766826F070662D4F7E6012E000F48016B5
:100BA000B6F5801F06D1032606FA05F4A14341F0ED
:100BB000706106E0460D360103FA06F6B14341F0D6
:100BC000706122B1460D360103FA06F6314300F09A
:100BD0000046B6F1004F02D11C4EF16101E01B4E00
:100BE0007160F0BD30B500228B071C0F0F2303FA94
:100BF00004F2164B08338C1053F824309343134CF3
:100C000008348D1044F8253023468C1053F82430D6
:100C10008C07240F00FA04F423430C4C08348D1085
:100C200044F8253030BD0A49DC31086070470000C7
:100C300000080140000C0140001001400014014078
:100C400000180140001C014000200140000001404C
:100C500000002042DF48006840F00100DD490860E4
:100C600008464068DC490840DA49486008460068A0
:100C7000DA490840D74908600846006820F4802017
:100C800008600846406820F4FE0048604FF41F00EA
:100C900088607047CF49096821F48031CD4A1160DE
:100CA0001146096821F480211160B0F5803F03D01E
:100CB000B0F5802F0ED106E0C649096841F48031B5
:100CC000C44A116007E0C349096841F4A021C14A40
:100CD000116000E000BF00BF704710B50146002260
:100CE000002300204A11012A02D1BA4C236806E0F1
:100CF000022A02D1B74C236A01E0B64C636A01F0C4
:100D00001F02012494401C400CB1012000E000208F
:100D100010BD38B5002000900024002500BF312010
:100D2000FFF7DBFF05460098401C00900098B0F5E7
:100D3000A06F01D0002DF2D03120FFF7CEFF08B117
:100D4000012400E00024204638BD01460020A14ACD
:100D5000106820F0F80040EAC10010607047A04918
:100D600008607047024600209A4B586820F47C10B7
:100D700042EA01031843974B586070479849086648
:100D8000704701460020934A506820F00300084352
:100D9000506070478F48406800F00C007047014673
:100DA00000208C4A506820F0F000084350607047E3
:100DB00001460020874A506820F4E06008435060F4
:100DC000704701460020834A506820F4605040EA92
:100DD000C1005060704729B17E4A527A02437D4B70
:100DE0005A7204E07B4A527A82437A4B5A727047B5
:100DF0007B49D8310860704701460020754A506829
:100E000020F440400843506070470021714A20326E
:100E10001170704A82F82010012802D004280AD1EB
:100E200004E001216B4A2032117005E00521694A76
:100E30002032117000E000BF00BF704769490860B0
:100E400070476449096A0143624A11627047654903
:100E500044390860704730B5002100220024002387
:100E60005C4D6D6805F00C0121B1042905D00829FD
:100E700023D105E05C4D056022E05B4D05601FE07D
:100E8000544D6D6805F47012524D6D6805F4803450
:100E9000022505EB92421CB9544D554305600BE009
:100EA0004C4D6D6805F400351DB1504D554305603E
:100EB00002E04D4D5543056002E04B4D056000BF1B
:100EC00000BF444D6D6805F0F0010909484D6B5CA9
:100ED0000568DD4045603F4D6D6805F4E061090A35
:100EE000434D6B5C4568DD4085603A4D6D6805F4A7
:100EF0006051C90A3E4D6B5C4568DD40C560354DAB
:100F00006D6805F44041890B3A4D6B5CC568B5FBD3
:100F1000F3F5056130BD29B12E4A526902432D4BCC
:100F20005A6104E02B4A526982432A4B5A61704746
:100F300029B1284A92690243264B9A6104E0254A66
:100F400092698243234B9A61704729B1214AD26941
:100F50000243204BDA6104E01E4AD26982431D4BF2
:100F6000DA61704729B11B4AD2680243194BDA6033
:100F700004E0184AD2688243164BDA60704729B100
:100F8000144A12690243134B1A6104E0114A1269B0
:100F90008243104B1A61704712494039086070470C
:100FA0000F49C86470470B49C87170470948406AC7
:100FB00040F0807007494862704701460020054AAA
:100FC00092680A400AB1012000E000207047014900
:100FD00088727047001002400000FFF8FFFFF6FE25
:100FE000000042428004424200127A0000093D00A3
:100FF000060000201600002031490143314A1160EB
:10100000704770B5002100230F22C47804B32D4C23
:10101000246804F4E064C4F5E064210AC1F1040327
:10102000CA40447804FA03F184781440214309014A
:10103000254C0678A155047804F01F050124AC4026
:1010400005786D11AD0005F1E025C5F8004109E016
:10105000047804F01F050124AC401C4D067876117D
:1010600045F8264070BD1A4A0A400243154B1B1F23
:101070001A60704739B1134A121D12680243114BAE
:101080001B1D1A6006E00F4A121D126882430D4BA9
:101090001B1D1A607047042808D14FF0E021096930
:1010A00041F004014FF0E022116107E04FF0E02130
:1010B000096921F004014FF0E0221161704700003E
:1010C0000000FA050CED00E000E400E080E100E043
:1010D00080FFFF1F10B50446FB48844209D101215F
:1010E0008803FFF73FFF00214FF48040FFF73AFFEE
:1010F00032E0F648844209D101214804FFF73FFF5E
:1011000000214FF40030FFF73AFF25E0F048844219
:1011100009D101218804FFF732FF00214FF480201C
:10112000FFF72DFF18E0EB48844209D10121C804E4
:10113000FFF725FF00214FF40020FFF720FF0BE011
:10114000E548844208D101210805FFF718FF002176
:101150004FF48010FFF713FF10BD2DE9F04786B064
:1011600005460E460024A24600BFA1460027B089CE
:1011700000B100BF2F462C8A4CF6FF700440F08867
:1011800004432C82AC894EF6F3100440B0883189B8
:101190000843718908430443AC81AC8A4FF6FF4091
:1011A0000440B0890443AC8201A8FFF754FEC6484E
:1011B000874202D1DDF810A001E0DDF80CA0A8897B
:1011C00000F4004040B10AEBCA0000EB0A1031689D
:1011D0004900B0FBF1F807E00AEBCA0000EB0A1087
:1011E00031688900B0FBF1F86420B8FBF0F004012D
:1011F0002009642101FB1089A88900F4004040B156
:10120000322000EBC900B0FBF1F000F0070004430E
:1012100008E0322000EB09106421B0FBF1F000F08F
:101220000F0004432C8106B0BDE8F0874FF416513F
:10123000016000218180C18001810C214181002158
:101240008181704710B502460020108A4FF2FF03DB
:1012500018400B884C8823438C882343CC88234335
:101260001843108210BD0021018041808180C1801F
:10127000704721B1828942F40052828104E0828960
:101280004DF6FF731A4082817047F0B50346002483
:1012900000260025002040F66A17B94200D100BFA1
:1012A0001846C1F3421401F01F06012707FA06F59C
:1012B000012C01D10C3004E0022C01D1103000E0EF
:1012C00014301AB107682F43076002E00768AF4384
:1012D0000760F0BD1AB1838A0B43838202E0838AE0
:1012E0008B4383827047028A4FF6F0731A40028262
:1012F000028A0A430282704782894FF2FF731A40C2
:10130000828182890A438281704721B1828942F0B9
:101310000202828104E082894FF6FD731A408281C5
:101320007047028A4FF6DF731A400282028A0A432C
:101330000282704721B1028A42F48042028204E0B4
:10134000028A4BF6FF731A4002827047C1F308020B
:101350008280704701468888C0F308007047818901
:1013600041F0010181817047028BD2B20283028B6E
:1013700042EA012202837047028B02F47F42028319
:10138000028B0A430283704721B1828A42F0200215
:10139000828204E0828A4FF6DF731A4082827047AD
:1013A00021B1828A42F01002828204E0828A4FF6E2
:1013B000EF731A408282704721B1828A42F008029C
:1013C000828204E0828A4FF6F7731A408282704765
:1013D00021B1828942F40042828103E08289C2F312
:1013E0000E028281704721B1828A42F400628282B9
:1013F00004E0828A4FF2FF731A4082827047828A29
:101400004FF6FB731A408282828A0A4382827047B7
:1014100021B1828A42F00202828204E0828A4FF67F
:10142000FD731A408282704702460020B1F5007FAA
:1014300000D100BF13880B400BB1012000E0002059
:10144000704701F40072B2F5007F00D100BFCA43BB
:101450000280704770B5024600240023002500205A
:1014600040F66A16B14200D100BFC1F3421501F047
:101470001F03012606FA03F3012D02D1968933409A
:1014800006E0022D02D1168A334001E0968A3340ED
:101490000C12012606FA04F41688344013B10CB17C
:1014A000012000E0002070BD10B50022002340F6AE
:1014B0006A14A14200D100BF0A1201249440A3B2D1
:1014C000DC43048010BD00000038014000440040AF
:1014D00000480040004C00400050004010B5044659
:1014E000BE48844208D101218014FFF73BFD002152
:1014F000A014FFF737FD16E0B948844208D1012156
:101500000014FFF73CFD00212014FFF738FD0AE02E
:10151000B448844207D10121C013FFF730FD0021F8
:10152000E013FFF72CFD10BD10B50022028802F475
:1015300041520B884C8823438C882343CC88234317
:101540000C8923434C8923438C892343CC8923432F
:101550001A430280838B4FF2FF74234083830B8AEC
:10156000038210BD2DE9F04F85B005460C464FF0C3
:10157000000902274FF000084FF0010B0026B24689
:10158000A88B4FF240010840A88302202884B5F8B8
:101590001C90A068022801D100BF38E0A08810B9D3
:1015A0004FF0010B01E04FF0020B8D48854200D156
:1015B00000E000BF6846FFF74EFCDDF800A0E088C1
:1015C000B0F5007F0AD14FEA1A2000EB80004000FE
:1015D000A168B0FBF1F0401D86B20BE04FEA4B1062
:1015E000BAFBF0F000EB80004000A168B0FBF1F026
:1015F000401D86B20A20B6FBF0F606F00108A6EB05
:101600000800C0F34F074FF6FF7000EA0828022FCA
:1016100001DBFF2F02DD02274FF00008E08840EADF
:10162000080038432884A088A189084361880843BA
:101630002188084340F4006040EA0909A5F81C909D
:1016400005B0BDE8F08F0021018041808180C1801C
:10165000018141818181C18107210182704700217F
:10166000018041808180C1800221816000218181CF
:10167000704721B1028842F04002028004E00288F3
:101680004FF6BF731A400280704721B1828B42F43B
:101690008062828304E0828B4FF6FF331A4082839C
:1016A000704730B5002400230C110125A540ABB2D2
:1016B0001AB185881D43858002E085889D43858019
:1016C00030BD1AB183880B43838002E083888B434B
:1016D00083807047818170470146888970474FF643
:1016E000FF62914204D0028842F48072028004E0DA
:1016F00002884FF6FF631A400280704721B182884A
:1017000042F00402828004E082884FF6FB731A40A4
:101710008280704702884FF2FF731A40028002886D
:101720000A4302807047018841F48051018070476C
:1017300021B1028842F40052028004E002884DF692
:10174000FF731A400280704702460020012901D031
:10175000108B00E0908A70470146088A7047B1F507
:10176000804F04D1028842F48042028004E0028863
:101770004BF6FF731A40028070470246002013891F
:101780000B400BB1012000E000207047CA430281EA
:101790007047F0B50246002000240023002501F028
:1017A0000F070126BE40B4B20B1101269E40B3B212
:1017B000968806EA03051689264016B10DB1012068
:1017C00000E00020F0BD10B5002201F00F0401235D
:1017D000A3409AB2D343038110BD00000030014002
:1017E00000380040003C00400CB500200190009003
:1017F0006C48006840F480306A49086000BF69485E
:10180000006800F4003000900198401C019000989E
:1018100018B90198B0F5A06FF1D16248006800F4E2
:10182000003010B10120009001E0002000900098ED
:10183000012843D15C48006840F010005A49086014
:101840000846006820F0030008600846006840F081
:1018500002000860534840685249486008464068A2
:1018600048600846406840F4806048600846406828
:1018700020F47C1048600846406840F4E810486056
:101880000846006840F08070086000BF4548006866
:1018900000F000700028F9D04248406820F00300B2
:1018A000404948600846406840F00200486000BF78
:1018B0003C48406800F00C000828F9D10CBD10B578
:1018C000FFF792FF10BD10B53648006840F00100E8
:1018D0003449086008464068344908403149486046
:1018E00008460068324908402E49086008460068EA
:1018F00020F4802008600846406820F4FE0048601C
:101900004FF41F008860FFF7DAFF4FF000602949AD
:10191000086010BD10B5002100200022214B5B683B
:1019200003F00C0121B1042906D0082928D107E0D1
:10193000214B224C236027E01F4B204C236023E0E7
:10194000184B5B6803F47010164B5B6803F480322D
:10195000022303EB904022B9194B4343174C2360F9
:101960000DE0104B5B6803F4003323B1144B434389
:10197000124C236003E0104B4343104C236003E000
:101980000D4B0E4C236000BF00BF064B5B68C3F3DA
:1019900003130C4CE15C094B1B68CB40074C2360E4
:1019A00010BD000000100240002002400000FFF8BF
:1019B000FFFFF6FE08ED00E000127A001C00002098
:1019C00000093D0020000020064C074D06E0E068BD
:1019D00040F0010394E8070098471034AC42F6D376
:1019E000FEF7AAFB4C1A00086C1A0008014A0249CB
:1019F00000F013B8690100083000002002E008C8B8
:101A0000121F08C1002AFAD170477047002001E078
:101A100001C1121F002AFBD170472DE9F041164683
:101A20000F460446002503E03946B047641C6D1C90
:101A300020780028F8D12846BDE8F08101FFFFFF9B
:101A4000FF01FFFFFFFF02FFFFFFFF006C1A00080E
:101A50000000002034000000FC190008A01A000853
:101A600034000020040400000C1A000800000000EC
:101A70000000000000000102030401020304060745
:101A8000080902040608000000A24A040000000041
:101A9000000000000102030406070809000000001E
:0400000508000131BD
:00000001FF
